:100000000C94AE020C94E6020C94E6020C94E60208
:100010000C94E6020C94E6020C94E6020C94E602C0
:100020000C94E6020C94E6020C9494270C94682835
:100030000C94A1220C94E6020C94E6020C94E602C5
:100040000C94E6020C94E6020C94E6020C94E60290
:100050000C94E6020C9428230C94E6020C94E6021D
:100060000C94E6020C94E6020C94E6020C94E60270
:100070000C94E6020C94E6020C94E6020C94E60260
:100080000C94E6020C94E6020C94E6020C94E60250
:100090000C94E6020C94E6020C94E6020C94E60240
:1000A0000C94E6020C94E6020C94E602167C1E0008
:1000B0001F0020002100220023002400250026002C
:1000C00027002D002E0000002A002B000000140045
:1000D0001A000800150017001C0018000C00120080
:1000E00013002F003000310039000000040016001A
:1000F000070009000A000B000D000E000F0033007E
:10010000340028000000E10000001D001B00060074
:1001100019000500110010003600370038000000FB
:10012000E5000000E000E3000000E2002C00000019
:100130002C0000002C000000E6000000000021520E
:10014000E40035003A003B003C003D003E003F002B
:1001500040004100420043004400450001004C00C3
:1001600001000000207821782378247825782678EB
:10017000277828780100010001000100007C0100BF
:100180000000010001000100010001000100010068
:100190000100010001000100010000000100010058
:1001A000010001000378027804780578010001005D
:1001B0000100010000000100010001000100000039
:1001C000010001000000010000000100000001002A
:1001D00001000100010001001E0F0500047F3F1F08
:1001E000643214643214783C1E1E140A052223253E
:1001F0002628292A2C2D2F3032333536383A3B3DEC
:100200003E4042434547494A4C4E50515355575939
:100210005A5C5E6062646668696B6D6F7173757756
:10022000797B7D7F81838587898A8C8E9092949655
:10023000989A9C9E9FA1A3A5A7A8AAACAEAFB1B364
:10024000B4B6B8B9BBBCBEBFC1C2C3C5C6C7C9CAB4
:10025000CBCCCDCED0D1D2D2D3D4D5D6D7D7D8D976
:10026000D9DADADBDBDBDCDCDCDCDCDDDDDDDDDCD4
:10027000DCDCDCDCDBDBDBDADAD9D9D8D7D7D6D5E6
:10028000D4D3D2D2D1D0CECDCCCBCAC9C7C6C5C3A8
:10029000C2C1BFBEBCBBB9B8B6B4B3B1AFAEACAAF5
:1002A000A8A7A5A3A19F9E9C9A98969492908E8CA5
:1002B0008A89878583817F7D7B79777573716F6D7F
:1002C0006B6968666462605E5C5A59575553515059
:1002D0004E4C4A4947454342403E3D3B3A3836350D
:1002E0003332302F2D2C2A292826252322FFAA7FBE
:1002F0005540000101010101010101010202020258
:1003000002020202020303030303030303040404BF
:100310000404040405050505050606060606070788
:1003200007070708080808090909090A0A0A0B0B40
:100330000B0C0C0C0D0D0D0E0E0E0F0F0F101011DF
:100340001111121213131414151516161717181865
:1003500019191A1A1B1B1C1D1D1E1E1F20202122CD
:1003600022232424252626272829292A2B2C2D2D13
:100370002E2F30313232333435363738393A3B3C30
:100380003D3E3F404142434445464748494A4C4D23
:100390004E4F50515354555658595A5B5D5E5F61EC
:1003A0006264656668696B6C6D6F7072737577787F
:1003B0007A7B7D7E8082838587888A8C8E8F9193DD
:1003C0009596989A9C9EA0A2A3A5A7A9ABADAFB104
:1003D000B3B5B7BABCBEC0C2C4C6C9CBCDCFD1D4E9
:1003E000D6D8DBDDDFE2E4E7E9EBEEF0F3F5F8FA8F
:1003F000FDFF0A0344005A003600300000001003DD
:100400004B0042004400460061006E007300000093
:100410000403090409023B00020100A0FA090400D8
:10042000000103010100092111010001224400071C
:10043000058103080001090401000103000000090F
:10044000211101000122B6000705820320000112DC
:10045000010002000000085A44602201000102006D
:100460000105010902A10185020901A1000509197F
:10047000012908150025019508750181020501096A
:100480003009311581257F950275088106093815D7
:1004900081257F950175088106050C0A38021581B2
:1004A000257F950175088106C0C005010980A1015D
:1004B000850319012AB700150126B70095017510AB
:1004C0008100C0050C0901A101850419012AA002BF
:1004D000150126A002950175108100C005010906CD
:1004E000A1018506050719E029E7150025019508F2
:1004F000750181020507190029EF1500250195F006
:1005000075018102050819012905950575019102FA
:10051000950175039101C005010906A1010507199F
:10052000E029E715002501950875018102950175FF
:100530000881010507190029FF150026FF0095060F
:100540007508810005081901290515002501950583
:1005500075019102950175039101C00011241FBE20
:10056000CFEFDAE0DEBFCDBF04B603FE18C0809146
:10057000A7039091A803A091A903B091AA03873083
:10058000904BA740B04B59F41092A7031092A803C8
:100590001092A9031092AA03E0E0F8E3099511E094
:1005A000A0E0B1E0EAECF8E502C005900D92AC3DA8
:1005B000B107D9F723E0ACEDB1E001C01D92A73A35
:1005C000B207E1F70E94C0120C940F2C0C940000AB
:1005D0008230B8F46530A8F44F3098F450E09FE0D2
:1005E000699F400D511D1124FA019BE4899FE00D84
:1005F000F11D1124EE0FFF1FE455FF4F85919491DB
:10060000089581E090E008950E94E802089581E055
:1006100008950E940703089581E008950E9407034A
:1006200008950E940E03089508950E9414030895EA
:10063000A6E0B0E0EEE1F3E00C94BB2A49835A83D4
:100640009E833091E30189819A8131111AC03E81E4
:10065000332399F0222389F00E943009182F682F44
:1006600089819A810E940C0969817A81812F0E9477
:1006700021102696E3E00C94D72A0E941E09182F19
:10068000F3CF0E94300969817A81F1CFFC01262FD6
:100690004081518162817381848195810E94180318
:1006A0000895CF93DF93EC0161E00E944603BE0101
:1006B0000E940903DF91CF910895CF93DF93EC015E
:1006C00060E00E944603BE010E941503DF91CF91B6
:1006D000089508950E94E1070E9469032FEF84E3C3
:1006E0009CE0215080409040E1F700C00000089558
:1006F0000E946A030E944C2308950E946A030E948C
:10070000702308950F931F93CF93DF938C0161E0C3
:100710000E944603EC01B8010E941103811106C03A
:1007200080E0DF91CF911F910F910895B801CE0124
:100730000E94281E8823A1F3B801CE010E94A120A7
:10074000882371F3B801CE010E94371F882341F33B
:10075000B801CE010E941320882311F3B801CE0105
:100760000E94CE1C8823E1F2F8018581882361F084
:10077000C330FCE7DF07E9F058F4C115ECE7DE070A
:10078000A9F0C130DC47B9F0C8010E940C03C9CF01
:10079000CB358CE7D807A9F0CC35ECE7DE0771F054
:1007A000CA35DC4789F70E94660DEECF0E947803B8
:1007B000B7CF0E946E0D0E947D03B2CF0E945C0DE8
:1007C000E3CF0E946A0DE0CF0E947D2280E00E946C
:1007D000071E0E941B040E941C1B08950E94541DAA
:1007E0000E941F040E940B1C0E94822208950895FB
:1007F00081E0089581FD02C02A9A08952A980895FB
:10080000CF93DF93D82F0E94F803C82F882319F0C5
:100810008D2F0E94FA038C2FDF91CF910895229A99
:100820002A9A0895CF93C82F0E94F7038C2F0E9415
:100830000004CF91089580E00E94120408950E9460
:10084000EA200E9412040895CF930E94EA20C82F44
:100850008091DE018C1779F0C093DE010E940D2398
:100860006093DF017093E0018093E1019093E201D6
:100870008C2F0E941204CF910895ADE0B0E0E3E424
:10088000F4E00C94BC2A488759876A877B878C8759
:100890009D8791110E94940C1F8286E0FE0138967C
:1008A000DE01119601900D928A95E1F78D818111FB
:1008B0000DC029813A814B815C816D817E818F8160
:1008C0000E94C70B2D96E2E00C94D82ACE01019627
:1008D0000E9451038111EDCFF5CFFC01248121301D
:1008E00021F4808191810E9462090895662329F094
:1008F0000E9457130E942A1408950E94B113FACF40
:10090000CF93C82F8823C9F08238C9F40E94F720FA
:1009100081FD13C089E30E944C0C0E94CD0C2FEF87
:1009200087EE93E0215080409040E1F700C0000046
:1009300089E30E94540C0E94CD0CCF910895833816
:10094000A1F40E94F72080FDF8CF83E50E944C0CB3
:100950000E94CD0C2FEF81EE94E02150804090401A
:10096000E1F700C0000083E5E4CF8438A1F40E94E1
:10097000F72082FDE2CF87E40E944C0C0E94CD0C50
:100980002FEF81EE94E0215080409040E1F700C0CD
:10099000000087E4CECF8CEF8C0F813A90F46C2F5F
:1009A00080910401909105010E948021882329F003
:1009B0008C2F0E94540C0E94CD0C8C2F0E944C0C4A
:1009C000BACF80E28C0F883048F4C77081E001C054
:1009D000880FCA95EAF70E94770CADCFEBE5EC0FD4
:1009E000E33040F4F0E0E05AFE4F808190E00E9456
:1009F0002221A3CFE8E5EC0FEB3150F4F0E0EE0F4D
:100A0000FF1FE65DFE4F808191810E94472195CFB7
:100A100083E38C0F833108F090CF61E08C2F0E942C
:100A200076048BCF882309F456C0823879F40E946B
:100A3000F72081FF50C089E30E944C0C0E94CD0C2E
:100A400089E30E94540C0E94CD0C0895833859F418
:100A50000E94F72080FF3FC083E50E944C0C0E945B
:100A6000CD0C83E5EECF843859F40E94F72082FF45
:100A700032C087E40E944C0C0E94CD0C87E4E1CF89
:100A80009CEF980F913AE8F290E2980F983050F46A
:100A9000877091E001C0990F8A95EAF7892F0E942B
:100AA0007D0CD1CF9BE5980F933028F490E080E047
:100AB0000E942221089598E5980F9B3128F490E038
:100AC00080E00E944721089593E3980F933118F432
:100AD00060E00E94760408951F93CF93DF93182F50
:100AE000EB010E948004209739F4812F0E941205A7
:100AF000DF91CF911F9108958FE99FE00197F1F762
:100B000000C000002197EFCF70E060E0893311F45E
:100B100060E570E00E946C050895882321F00E9432
:100B2000770C0E94CD0C0895882321F00E947D0C43
:100B30000E94CD0C0895B0E0A0E0E1EAF5E00C944D
:100B4000B52A6C01D62FC72FFC01158106810295AD
:100B50000F700E946D0CE82E8823E9F0E12E11231E
:100B6000D1F08C2F807F803451F080E28D0F88305F
:100B7000F8F0011104C08C2F807E8032C9F0809182
:100B8000480382FF15C082E00E94300D0E946D0C68
:100B900091E0E82EE926BC2EB2949FE0B922FBE05A
:100BA000FB15B8F1EB2DF0E0EF5EF34D0C94752AD8
:100BB000E12CF1CF0C2F0F70C07F11F00295007F58
:100BC000112399F0002359F080E28D0F883010F046
:100BD000D11107C0802F0E94770C0E94CD0C8D2F61
:100BE0005AC0802F0E94870CF8CF8D2F0E941205CB
:100BF000002379F080E28D0F883010F0D11104C00D
:100C0000802F0E947D0C03C0802F0E948D0C0E94BB
:100C1000CD0CEB2DE850FF0B349720F40E94EA2016
:100C20000E941204EE2089F00E94690C80FD0DC024
:100C3000F60115820E94630C0E946A08C6010E9498
:100C4000A8070E94630C0E947A08CDB7DEB7E9E0DE
:100C50000C94D12A2C2F2F70F22EC07FC03219F0A5
:100C6000F29480EFF822DD2341F0D130D1F111234D
:100C700009F444C00023F1F0B2CF8091480382FD13
:100C800015C0112359F0FF2029F08F2D0E94770CF9
:100C90000E94CD0C80E00E948004BBCF80E00E94C7
:100CA0001205FF2009F4B5CF8F2DABCF112369F0CA
:100CB000011104C08F2D0E948D05ABCF013009F0CA
:100CC000A8CF8F2D0E94AB0CA4CF0111A2CF8F2DE6
:100CD0000E9494058F2D0E94B70C8F2D0E949B0CB3
:100CE00098CF112321F0063008F093CFE3CF0530E1
:100CF00008F08FCF8F2D0E9494058BCF0023D1F366
:100D0000D93349F43FEF87EE93E031508040904073
:100D1000E1F700C000008D2F0E9412057ACF8C2FC2
:100D200086958695837069F0813009F072CF8D2F9A
:100D30009C2F9370111102C080E090E00E94472127
:100D400068CF8D2F9C2F9370111102C080E090E02E
:100D50000E9422215ECF612F8D2F0E94760459CFF1
:100D60008C2F8370A1F5111154CF4D2F42954695CC
:100D70004770440F440F2D2F2F7030E0042E02C017
:100D8000220F331F0A94E2F790E080E0D4FF09C0FD
:100D90008FE090E002C0880F991F4A95E2F7809596
:100DA0009095C695C695C370822B932BC23049F09F
:100DB00058F4C13019F00E943A082BCF0E94310834
:100DC00028CF0E94430825CF0E942E0822CF869567
:100DD000112311F08C2F8170882309F41ACF4D2F25
:100DE000429546954770440F440F2D2F2F7030E0E9
:100DF000042E02C0220F331F0A94E2F790E080E035
:100E0000D4FF09C08FE090E002C0880F991F4A9577
:100E1000E2F780959095C695C695C370822B932B6B
:100E2000C23049F058F4C13019F00E94A508F1CE43
:100E30000E949C08EECE0E94AE08EBCE0E945208A3
:100E4000E8CECF70112329F08C2F0E946A088D2FD5
:100E500032CF8D2F0E9494058C2F0E947A08D9CE14
:100E6000D23F41F160F4D03FB9F0D13F81F011237E
:100E700009F446C00111B3CE8C2F8F711FC0D33F30
:100E800001F1D43FA1F78091480382FD24C08C2F4B
:100E90008F71112311F312C0112341F0053008F0B6
:100EA000B8CE8C2F8F710E948C08B3CE063008F01C
:100EB000B0CEF7CF8C2F8F711111CFCF0E946A085F
:100EC000A8CE112329F08C2F8F710E945E08A1CE2D
:100ED0000E9459089ECE112349F0CF718C2F0E9499
:100EE0006A0863E08C2F0E94120D93CE81E00E946D
:100EF000300D023008F48DCE82E00E94300D89CE94
:100F0000002359F0D93309F006CFEFEFF7EE23E0D5
:100F1000E150F0402040E1F7FCCE8C2F8F719DCF47
:100F20000F931F93CF93DF93EC01688179818D81BB
:100F30000E946D098C010E94B7080E942D08B8011B
:100F4000CE010E949B05DF91CF911F910F910895D3
:100F5000CF93DF93EC018C81882399F0CE010E941E
:100F60008203811111C00E946D0C882351F08D8184
:100F7000882339F08091480382FF03C082E00E94F9
:100F8000300DDF91CF910895CE010E949007CE01E0
:100F90000E945D03F6CF90E080E00E94222190E065
:100FA00080E00E9447210E94940C0E94CD0C0E9478
:100FB00046140E942A1408950E945C0C0E94CB07DC
:100FC00008950E94840C0E94DC07089592959F70FA
:100FD000963091F058F4925F9F70923058F4803FB1
:100FE00019F030F4883E30F481E008959A5FF4CF30
:100FF000843FD1F380E00895883EB0F3813FD1F77C
:10100000F3CFFC012481222339F0808191810E9459
:1010100062090E94E607089580E00895A6E0B0E026
:10102000E4E1F8E00C94BC2A2696E2E00C94D82A7D
:10103000A7E0B0E0EEE1F8E00C94BC2A2796E2E0ED
:101040000C94D82A08950E94220808950E9423082B
:1010500090930F0280930E02089508950E9426082F
:10106000089520910E0230910F02822B932B0E9443
:101070002608089520910E0230910F0282239323B7
:101080000E942608089520910E0230910F028227B7
:1010900093270E94260808950E94220808950E941E
:1010A0004C0808950E944F0890930D0280930C0203
:1010B000089590E080E00E945208089521E030E019
:1010C000A90102C0440F551F8A95E2F7CA010E9488
:1010D0005208089521E030E002C0220F331F8A95A4
:1010E000E2F780910C0290910D02822B932B0E94CB
:1010F0005208089521E030E002C0220F331F8A9584
:10110000E2F72095309580910C0290910D02822398
:1011100093230E945208089521E030E002C0220F7C
:10112000331F8A95E2F780910C0290910D0282277D
:1011300093270E945208089520910C0230910D02CD
:10114000822B932B0E945208089520910C0230911B
:101150000D02822393230E945208089520910C02CD
:1011600030910D02822793270E9452080895089516
:10117000262F277091E001C0990F2A95EAF723E006
:10118000769567952A95E1F7660F771F660F771FAB
:10119000FA01E60FF71F50E040E0682F70E0819100
:1011A000DF0111979B01042E02C0369527950A9402
:1011B000E2F7217021952827292328272C934F5FB8
:1011C0005F4F4430510559F70895A82FA77023E0C9
:1011D000969587952A95E1F7880F991F880F991F93
:1011E000FB01E80FF91F50E040E080E0219130E082
:1011F0000A2E02C0369527950A94E2F7217033270C
:10120000042E01C0220F0A94EAF7822B4F5F5F4F32
:101210004430510559F70895262F953070F48F30DA
:1012200060F4682F70E08FE0989F600D711D1124AD
:1012300044EE51E0822F0E94B8080895292F95307E
:1012400068F48F3058F490E064EE71E03FE0239F43
:10125000800D911D11240E94E508089580E00895F5
:10126000B0E0A0E0E6E3F9E00C94B52A7C0100913F
:101270000C0210910D0280910E0290910F02082B2A
:10128000192BCFE0D0E0CC24C394D12CBC2EC601C6
:101290000C2E02C0880F991F0A94E2F78023912335
:1012A000892B49F4219790F7B12C8B2DCDB7DEB760
:1012B000E9E00C94D12AB7018C2F0E942D100197E0
:1012C00089F3F3CFCF93DF93EC010E943009BE0185
:1012D0000E942D10DF91CF9108951F93CF93DF933C
:1012E000EB019091E301992339F0CB010E9462094F
:1012F000DF91CF911F910895882369F0CB010E945F
:101300003009182F682FCE010E940C09BE01812FD1
:101310000E942D10EDCFCB010E941E09182FF6CF91
:101320001F93CF93DF93C091100217E080911102B9
:101330008C1304C0DF91CF911F910895D0E01C9FC2
:10134000F0011D9FF00D1124EE5EFD4F20813181D3
:10135000428153816481758186810E94180821969B
:10136000C770E4CF20914A0230914B0240914C0269
:1013700050914D0260914E0270914F028091500247
:101380000E9418080895CF93DF9380915002807FC8
:1013900009F04DC080914F02882309F448C0E091C4
:1013A000100250911102C0914B02D0914A026091FB
:1013B0004C0270914D0247E05E17C9F18E2F90E00C
:1013C000E49FF0011124EE5EFD4F2481222391F170
:1013D000489FF001499FF00D1124DF01AE5EBD4F23
:1013E00011962C9111972C1325C02C912D1322C0EE
:1013F00015962C91159721111DC012962D913C9197
:10140000261B370B283C3105A8F4809150028F70C1
:10141000806180935002E85EFD4F80818F70806113
:1014200080838AE492E00E94A8070E949009DF91DD
:10143000CF910895FC013196E770BECF482F2091DF
:1014400010029091110257E0291302C080E0089524
:1014500030E0529FF001539FF00D1124EE5EFD4FDE
:101460008181681306C08081481303C08581811182
:10147000EECF2F5F3F4F2770E7CFA4E1B0E0E3E46A
:10148000FAE00C94B22A8C0186E0F801DE011F9686
:1014900001900D928A95E1F7F8018481E5809AE444
:1014A000A92E92E0B92E90914E0291111FC088236F
:1014B000D1F0EE20A9F0C8010E940108F82E88237F
:1014C00079F087E0F801D50101900D928A95E1F756
:1014D000C5010E946D040E94C3090E94B2095FC049
:1014E000C8010E94A807FF24F39459C0C080D1808E
:1014F00082809380F0904F0220914C0230914D02F7
:10150000A401421B530BFF2009F4F9C0483C5105CC
:1015100008F0A7C0882309F442C090914B02809143
:101520005002282F207F09F05CC09D1116C09091B9
:101530004A02C91212C0E1104EC08F7080618093C0
:1015400050020E94B2098AE492E00E94A8078091AA
:101550005002F8018683F12C22C0E1103CC06D2DB1
:101560008C2D0E941E0A6D2D8C2D0E941E0AE82EC5
:101570008111F1CFCF86D88A8F8598890E94620920
:10158000292F22952F70243078F49F702230A8F0F4
:101590009923B9F0F8019681907F99F4FE2C8F2D54
:1015A0006496ECE00C94CE2A2A5F2F70223068F00B
:1015B000C8010E94A807EF2CF1CF992311F08823CE
:1015C00069F3805E883050F3F3CF803F38F3815F5A
:1015D000833070F7E3CF8091500281608093500296
:1015E000BACF9D1113C090914A02C9120FC0E110E9
:1015F0000DC08683C8010E94A80787E0F801AAE40D
:10160000B2E001900D928A95E1F767CFC8010E9480
:101610000108882309F464CFEE2009F461CF80919A
:101620005002803288F020914A0230914B02398773
:1016300028879B868A8690914E029C871D868E877E
:10164000CE0108960E94A80787E0F801AAE4B2E05C
:1016500001900D928A95E1F70E94C3090E94B20998
:1016600042CF90915002292F207FA1F4682D9A8AB1
:10167000898AA6017A899E2D0E940E088AE492E04A
:101680000E94A80787E0F50111928A95E9F70E9468
:10169000B20961CF882309F482CF80914B028D116A
:1016A00010C080914A02C8120CC0E1100AC0968393
:1016B000C8010E94A80787E0F50111928A95E9F711
:1016C0006ECFC8010E940108882309F409CFEE20DB
:1016D00009F406CF80915002803208F4B5CF2091F2
:1016E0004A0230914B023A8329839C828B829091EB
:1016F0004E029D831E828F83CE010196A3CF483C6C
:101700005105B8F5882309F4EECEFE2CEE2009F43D
:10171000E7CE80914B028D111EC080914A02C81203
:101720001AC08091500280FD0DC0982F907F51F01B
:101730008683903F09F45ECF982F907F905F8F70E3
:10174000892B57CF87E0F801AAE4B2E001900D920F
:101750008A95E1F724CFC8010E940108811174CF56
:1017600080915002816080935002C8010E94A807B6
:1017700016CF682D9A8A898AA6017A899E2D0E94A1
:101780000E0887E0F50111928A95E9F7A6CEAEE042
:10179000B0E0EDECFBE00C94BB2A288739874A8740
:1017A0005B876C877D878E87CE0108960E943D0AF5
:1017B0008823B1F06C85662341F0288539854A85F8
:1017C0005B857D858E850E94180817E08091100248
:1017D0009091110289133DC02E96E3E00C94D72A14
:1017E00087E0FE013896DE01119601900D928A95F0
:1017F000E1F78C85882349F32091110230E0C9017B
:10180000019687709927409110024817190699F0A0
:1018100097E0929FD001939FB00D1124AE5EBD4F13
:10182000FE01319601900D929A95E1F78093110295
:101830000E949009CACF0E94E107109211021092F3
:10184000100287E0EAE4F2E0DF011D928A95E9F7F1
:10185000BCCF819FC00111248E5E9D4F0E943D0A26
:10186000882309F4B9CFE09110021E9FF0011124E2
:10187000EE5EFD4F2081318142815381648175810B
:1018800086810E9418088091100290E0019687706E
:101890009927809310029ACF682F8091040190912C
:1018A00005010E9400220895682F80910401909103
:1018B00005010E940E220895809104019091050176
:1018C0000E941C22089580917102869586958695C6
:1018D00008958091710287700895909171029770B8
:1018E00081E009F480E00895809195020895909137
:1018F0009502892B80939502089580959091950289
:1019000098239093950208951092950208959091CE
:101910009402892B8093940208958095909194026B
:101920009823909394020895109294020895089534
:101930000E94970C089590917202292F282331F06C
:1019400080958923809372020E94980C08950895CF
:101950000E94A70C089590917302292F282328171D
:1019600029F0982B909373020E94A80C08959091EF
:101970007302292F282331F08095892380937302E5
:101980000E94A80C089580917302882329F0109278
:10199000730280E00E94A80C0895CF93DF93E0913A
:1019A0000401F0910501809195028083E09104018A
:1019B000F0910501808190919402892B8083909110
:1019C0007302992381F0E0910401F0910501808177
:1019D000892B808380910401909105010E946C21E4
:1019E00081110E94C30CC0910401D091050140E215
:1019F00050E061E572E0CE010E94822B892B59F004
:101A000080E2FE01A1E5B2E001900D928A95E1F736
:101A1000CE010E94FA20DF91CF91089508950E948F
:101A20000E0D08959091480392FF11C098E0899F90
:101A300090011124622B609371020E946A088091C8
:101A400071028695869586950E940F0D08950E94D5
:101A50006A0808951092710280E00E940F0D0895A7
:101A6000909171028095892380937102282F2770AD
:101A700069F4891759F09091480392FF07C0869541
:101A8000869586950E947A080E942A0D0895909165
:101A9000480392FB222720F9281769F080FB92F96E
:101AA0009093480380914703909148030E948F0DC3
:101AB00082E00E94300D08958091480382FB8827C0
:101AC00080F991E089270E94470D089581E00E94E6
:101AD000470D089580E00E94470D08956FEF7FEF56
:101AE00090E080E00E94DA2B089590E080E00E9470
:101AF000A62B21E0863E9E4F09F020E0822F08951C
:101B000082E090E00E94982B089583E090E00E948C
:101B1000982B089584E090E00E94A62B0895BC01C4
:101B200084E090E00E94DA2B0895AB01BC018FE0C5
:101B300090E00E94CE2B0895AB01BC0183E190E0C0
:101B40000E94CE2B089560E070E0CB010E949C0DB6
:101B5000089560E070E0CB010E94950D0E94A30DF6
:101B60000895A8E0B0E0E7EBFDE00C94BC2A66EE37
:101B70007EEF90E080E00E94DA2B60E082E090E06F
:101B80000E94BC2B60E083E090E00E94BC2B10928E
:101B90000F0210920E0260E074E184E090E00E9477
:101BA000DA2B60E086E090E00E94BC2B6FEF87E0CC
:101BB00090E00E94BC2B40E050E0BA0188E090E049
:101BC0000E94CE2B60E084E290E00E94BC2B60E09B
:101BD00087E190E00E94BC2B60E08CE090E00E94E6
:101BE000BC2B60E08DE090E00E94BC2B19821A8231
:101BF0001B821C821D821E821F82188648E050E0D4
:101C000068E170E0CE0101960E94AC2B40E050E00C
:101C1000BA0180E290E00E94CE2B0E94A90D289686
:101C2000E2E00C94D82A0E94B10D0895682F8EE04E
:101C300090E00E94BC2B0895A6E0B0E0E2E2FEE056
:101C40000C94BA2A0E9401238C01809196029091F3
:101C500097028017910781F019821A820E9401234E
:101C6000682F49815A81792F80E090E00E943D04DD
:101C700010939702009396022696E4E00C94D62ADD
:101C80000E940D236093A6027093A7028093A8027E
:101C90009093A9026093A2027093A3028093A4027E
:101CA0009093A5020895089508950E94530E0895F3
:101CB00008950E94580E089583E291E10E94CD128A
:101CC0000E94540E0E94550E089581E008950E94CE
:101CD000650E08950E94650E0895089508950E9466
:101CE0006D0E0E946E0E08950E9442110E940F0414
:101CF0000E94FA1E08950E94F8220E9421120E945A
:101D0000740E0E94541D0E94BF1B0E94590E08951C
:101D1000A6E0B0E0EEE8FEE00C94B02A0E94670E68
:101D200081110EC00E941C0E0E94151C0E94F91EFB
:101D30000E9468140E9424042696EEE00C94CC2A9B
:101D40000E94371228E9822E22E0922E640110E0D0
:101D5000F601E190F1906F01812F0E9468111F5FE1
:101D6000153009F44BC0E816F90691F38091AA02E8
:101D700081FD0E9471110E946A0E782E10E0662487
:101D80006394812F0E9468117C01F401A190B190AD
:101D90004F018A159B0561F100E0CC24C394D12C3E
:101DA000AE24BF24C5018C219D21892BC1F0772051
:101DB000B1F009831A830E9401239C838B836D8277
:101DC00021E0C7018C219D21892B09F420E0498164
:101DD0005A816B817C818D81922F0E943D040F5F1F
:101DE000CC0CDD1C0F30F1F6F4013297F182E08269
:101DF0001F5F153031F60E94400E96CFE816F906A7
:101E000009F0B4CF8FCF1F93CF93DF930E9432108E
:101E1000EC01C11580E5D807F0F5C11580E4D807BD
:101E200008F09CC0C03ED10520F5CD3CD10508F09E
:101E300082C0C83AD10578F4C53AD10508F073C01C
:101E4000C130D10519F1209709F1C430D105F0F462
:101E5000D0E0C0E01BC0C33CD105D0F7C85AD0E0E9
:101E6000CC0FDD1FCD59DE4F0990D881C02DD46431
:101E70000DC0C11580E2D80708F0D1C0C11581E0BE
:101E8000D80708F05AC0C83ED10510F7CE01DF913F
:101E9000CF911F910895C03682E5D80718F5C03458
:101EA00082E5D80708F06BC0C03282E5D80708F099
:101EB0005FC0C11582E5D80708F497C02C2F26957E
:101EC000269580E2289F900111248C2F8370C1E019
:101ED000D0E002C0CC0FDD1F8A95E2F7C22BD32BD6
:101EE000DD68D4CFC03A82E5D80760F4C03882E517
:101EF000D80708F459C0CF71D0E0DC2FCC27C46FCD
:101F0000D06AC4CFC03C82E5D80708F462C0C03EA6
:101F100082E5D80708F09CCFDC2FCC27CC27DF71D7
:101F2000C06FD06AB3CFC55AD0E0C756DE4FC88164
:101F3000D0E0D064ABCFD065A9CF8D2F0E94D41054
:101F4000182FCE0199270E943210C12FD0E0DC2F2C
:101F5000CC27CC27DF71C82BD92B98CFCE0199275E
:101F60000E943210CC27DF70C82BD92BD06A8ECFBD
:101F7000CF71D0E0DC2FCC27C16FD06A87CF2C2F58
:101F800026952695277080E2289F900111248C2F9A
:101F90008370C1E0D0E002C0CC0FDD1F8A95E2F76C
:101FA000C22BD32BDC6872CF2C2F26952695277059
:101FB00080E2289F900111248C2F8370C1E0D0E033
:101FC00002C0CC0FDD1F8A95E2F7C22BD32BDA6853
:101FD0005DCF8C2F8F710E94D410C82FD0E0DC2FE2
:101FE000CC27CC27DF71D06251CF8C2F8F710E940C
:101FF000D41055E0D695C7955A95E1F7CF70D0E04B
:10200000DC2FCC27282F30E084FF05C044E0220FCE
:10201000331F4A95E1F7C22BD32BD06937CF8D2FD1
:102020008F710E94D410182FCE0199270E94321070
:10203000C12FD0E0DC2FCC27CC27DF71C82BD92BC8
:10204000D2CF462F753030F46F3020F4672F0E94C6
:102050000403089590E080E008950E9421100E94FA
:10206000030F089582389105B9F1B0F481339105D9
:1020700009F47DC048F48932910509F46DC08A32B3
:10208000910509F47BC008958533910509F45FC07B
:102090008933910509F10895833E9105D9F138F40A
:1020A000803E910529F1823E910579F10895863EA1
:1020B0009105D9F1873E910509F43EC0843E910512
:1020C00041F52091480321FF24C08091470384FDFE
:1020D00019C087EE90E0089520914703237009F01E
:1020E0005AC02091480323FF14C089E290E008956C
:1020F0002091470320FD38C03091480330FF09C0CC
:1021000024FF43C090E080E008952091470322FD22
:10211000F7CF08952091470322FD3AC0309148033C
:1021200030FD39C024FFF5CFEDCF2091470323FFC9
:10213000F0CF24FDE7CFCDCF2091470323FD2EC064
:102140003091480331FFEECF84EE90E00895209166
:10215000470325FFDECFC9CF2091470325FD21C0CE
:102160002091480323FFD5CF89E390E0D2CF20917F
:10217000470326FFCECF8AE290E0089520914703DF
:1021800026FFC7CF81E390E0089583EE90E00895A5
:1021900082EE90E0089580EE90E0089586EE90E063
:1021A000089585E390E008959091470392FF10C051
:1021B00041E0282F2471243009F040E031E0282F3D
:1021C0002871283009F030E0431711F02CE0822705
:1021D00093FF10C041E0282F2471243109F040E022
:1021E00031E0282F2871283109F030E0431711F031
:1021F0002CE082273091480330FF10C051E0282F97
:102200002171213009F050E041E0282F2871283059
:1022100009F040E0541711F029E0822731FF10C087
:1022200041E0282F2171213109F040E031E0282FD1
:102230002871283109F030E0431711F029E0822796
:1022400094FD877E089580E008950E946E0D0895A4
:102250000E9437122FEF86E791E021508040904096
:10226000E1F700C000000E94371280E00E94681170
:1022700080FF04C00E9425110E944C2308950E94F3
:10228000281108950E94750D811102C00E94130E3D
:102290000E94800D8093AA020E948A0D90934803A9
:1022A000809347030E943F110E94850D90E00E9499
:1022B0002E0880910C0290910D020E944F08089503
:1022C00008950E946011089508950E946411089570
:1022D000E82FF0E0EE0FFF1FED5AFC4F8081918157
:1022E0000895089580EA8A95F1F7089500C0089549
:1022F0000E9472110895F894E82FE295EF70F0E0D3
:1023000031A1282F2F7081E090E001C0880F2A951D
:10231000EAF7982F9095932391A392A1892B82A3FA
:10232000789408950F931F93CF93DF93CBEAD1E076
:1023300089918F3F11F00E947B1181E0C03BD8074B
:10234000B9F7CCE9D1E00BEA11E089918F3F11F0A8
:102350000E947B110C171D07C1F7DF91CF911F91D0
:102360000F910895AF92BF92DF92EF92FF920F9379
:102370001F93CF93DF938C01D62EC62FD0E0CE01D2
:1023800085559E4F7C01FC0120812F3F09F44CC0F4
:10239000F894E22FE295EF70F0E031A12F7081E028
:1023A00090E001C0880F2A95EAF7932F982B91A30C
:1023B00092A18095892382A378940E947611ECE9FA
:1023C000F1E041E050E0B12CA12C21912F3FB1F17F
:1023D000A22FA295AF70B0E090968C9190E02F70F4
:1023E00002C0959587952A95E2F780FD27C0CA011E
:1023F000A82AB92A440F551F81E0EB3AF80729F7BC
:10240000F70180818F3F11F00E947B1161E0A114E0
:10241000B10409F460E08D2D0E947811CC0FDD1F0E
:10242000C00FD11FB982A882DF91CF911F910F9168
:10243000FF90EF90DF90BF90AF90089590E080E024
:10244000D7CF0E9492118AE0E3E5F3E0DF01982FF5
:102450001D929A95E9F7E9E4F3E0DF011D928A9570
:10246000E9F785E00E9472120E9461110895AAE0C6
:10247000B0E0EDE3F2E10C94B92A8E010F5F1F4F3B
:102480008AE0F80111928A95E9F7F12C6F2DC801C5
:102490000E94B211F394F5E0FF12F8CF4AE050E049
:1024A000B80189E493E00E94822B21E0009709F4AF
:1024B00020E0892B41F08AE0F801A9E4B3E0019023
:1024C0000D928A95E1F745E063E573E089E493E0D6
:1024D0000E947312182F0E946511812F2A96E5E041
:1024E0000C94D52A0895CF92DF92EF92FF921F931A
:1024F000CF93DF936C017B01C42F222349F081E04D
:102500008093AD020E9401239093AC028093AB02B2
:102510001091AD0211110AC010E0812FDF91CF910F
:102520001F91FF90EF90DF90CF9008958091AB02C4
:102530009091AC020E941923059770F3D0E0CC0F64
:10254000DD1FAE01B601C7010E94822B892B41F02D
:10255000AE01B601C7010E948F2B1092AD02DDCFF4
:1025600010E0FBCF0E94E5240E947B0E0E94F22423
:1025700008950E94F7240E94880E0E941125089554
:102580000E949A220E94CB240E945C0E0E94B212EA
:102590000E94B9120E946F0EFBCF9093DD018093D1
:1025A000DC010895282F35EB2303C001112497FF88
:1025B00004C080589109892F089580589F4FFBCF00
:1025C0008091B40280FF0DC060910B0170E0660F36
:1025D000771F6038710570F56115710569F1862FF7
:1025E000089581FF07C060910B0184E0689FB001EE
:1025F0001124EFCF60910B0182FD0AC08091B302DC
:102600008823A9F020910A0160910B01821710F034
:1026100088E0ECCF869FC001112433E0880F991F1A
:102620003A95E1F7622F70E00E943F2AD2CF68E02E
:1026300070E0D5CF8FE7089581E008958091B402CE
:1026400080FF0CC06091070170E0759567957595E6
:1026500067956115710549F1862F089581FF06C0C0
:102660006091070170E075956795F3CF6091070160
:1026700082FD0BC09091B2029923A1F060910601F6
:1026800080910701961738F0682F70E06038710567
:1026900000F38FE70895899FC001112470E00E9424
:1026A0003F2AF4CF61E070E0D7CF81E008958D3C00
:1026B00031F40E94E01281958093B80208958E3C17
:1026C00019F40E94E012F8CF8F3C31F40E94E0121E
:1026D00081958093B7020895803D19F40E94E0121D
:1026E000F8CF893D29F40E941E138093B902089502
:1026F0008A3D21F40E941E138195F7CF8B3D31F462
:102700000E941E1381958093BA0208958C3D19F49E
:102710000E941E13F8CF9FE2980F983070F4815DED
:10272000990B21E030E001C0220F8A95EAF78091F1
:10273000B602822B8093B60208958D3D31F48091CC
:10274000B40281608093B40208958E3D21F480919B
:10275000B4028260F7CF8F3DB9F78091B4028460F4
:10276000F1CF4091B7028D3C59F48091B80287FFB8
:102770000DC01092B80241110BC01092B30208C0F4
:102780008E3C81F48091B80218169CF3442381F0AA
:102790008091B9029091BA02892B09F05AC0109227
:1027A000B20208958F3C49F447FFF0CF1092B70270
:1027B0008091B8028111ECCFE0CF803D19F414165E
:1027C000ACF3E4CF9091B902893D29F41916F4F6DF
:1027D0001092B902DBCF8A3D19F497FFD7CFF8CF1B
:1027E0009091BA028B3D29F497FFD0CF1092BA0294
:1027F000CDCF8C3D19F41916CCF3C8CF9FE2980FBA
:10280000983090F4815D990B21E030E0B90102C06D
:10281000660F771F8A95E2F7CB0180959091B602FB
:1028200089238093B602B2CF8D3D31F48091B402FA
:102830008E7F8093B402AACF8E3D21F48091B402A2
:102840008D7FF7CF8F3D09F0A1CF8091B4028B7FB0
:10285000F0CF08950E9401239C019091B7028091CE
:10286000B802982B21F03093B1022093B0029091DE
:10287000B9028091BA02982B21F03093AF022093D5
:10288000AE0285EB92E00E941421089586E0E5EB0C
:10289000F2E0DF011D928A95E9F71092B3021092DF
:1028A000B2021092B4020895FC01828181110EC01F
:1028B000838181110BC08481811108C091E08581E1
:1028C000811101C090E0892F8170089581E0FCCFD3
:1028D000A6E0B0E0EEE6F4E10C94BB2A86E0E5EB7E
:1028E000F2E0DE01119601900D928A95E1F71092C7
:1028F000B7021092B8021092B9021092BA028B81FC
:102900009C81892B89F08091B0029091B1020E9444
:102910001923AC019091B3029923C9F180910C0164
:102920008417150608F440C08D819E81892B91F093
:102930008091AE029091AF020E941923AC01909158
:10294000B202992309F46AC0809108018417150620
:1029500008F472C0BE016F5F7F4F85EB92E00E946A
:102960002E22811105C085EB92E00E945414811142
:102970000E942A1486E0FE013196A5EBB2E0019098
:102980000D928A95E1F72696E3E00C94D72A2091E0
:102990000D018AE0289F900111242417350720F6A5
:1029A0009F5F9093B30202C09F3FD1F71B81112319
:1029B00059F00E94E0129FEF11160CF491E0899FEC
:1029C000802D11248093B7021C81112359F00E949D
:1029D000E0129FEF11160CF491E0899F802D1124D5
:1029E0008093B8028091B702882309F49DCF10919B
:1029F000B802112309F498CF0E94D212882351F013
:102A00008093B702812F0E94D212882329F08093ED
:102A1000B8028ACF81E0F4CF81E0F9CF209109019B
:102A20008AE0289F900111242417350708F092CFDF
:102A30009F5F9093B20202C09F3FD1F71D81112387
:102A400059F00E941E139FEF11160CF491E0899F1C
:102A5000802D11248093B9021E81112359F00E9408
:102A60001E139FEF11160CF491E0899F802D112405
:102A70008093BA028091B902882309F46BCF109138
:102A8000BA02112309F466CF0E94D212882351F0B2
:102A90008093B902812F0E94D212882329F080935B
:102AA000BA0258CF81E0F4CF81E0F9CFEF92FF92E4
:102AB0000F931F93CF93DF93EB01E82FD1110EC03B
:102AC000442321F0F0E0EE50FD4FE4916E2F7E2F75
:102AD0008E2FCDB7DEB7E6E00C94D42A0D2F10E090
:102AE000282F30E0442329F02E503D4FF901249146
:102AF00030E0F6E0CF9FC0011124EFEFF0E0BF011E
:102B00000E942B2AAB018C2F90E0880F991FA5E51E
:102B1000A49FB001A59F700D1124861B970B982FC1
:102B2000990F980FBF01601B710B629FD001639FCB
:102B3000B00D729FB00D11248B2F9D9FB0011124F9
:102B4000672F7727EF01C61BD70BBE01629FE001FD
:102B5000639FD00D729FD00D11247F01E91AF108F7
:102B6000E09EB001E19E700DF09E700D1124672F64
:102B70007727E61BF70BE29F8001E39F100DF29F82
:102B8000100D1124E12F722F4230510599F048F4B5
:102B90004115510569F04130510581F0EB2F8D2F22
:102BA00007C04430510569F080F046305105B1F757
:102BB0006E2F8FCFE22F7B2F812FFACFE22F7D2F29
:102BC000F7CFEB2F822F712FF3CF7B2F822FED2F9B
:102BD000EFCF41E00E945615089508950E94E9152F
:102BE0000895CF93DF93762FE901682F842F0E94F9
:102BF000EE15798368838A83DF91CF910895809160
:102C00005D03982F9E7F29F48170826080935D031D
:102C100008958635E8F381708465F8CFB0E0A0E0D0
:102C2000E4E1F6E10C94B62A88E090E00E94A02B43
:102C30006B017C0184E290E00E94982B282F30E009
:102C400040E050E060E070E080E090E000E20E9450
:102C5000E32AB22FA32FF42FE52FD62FC72F9701EA
:102C60008601BC29A12BFE295E2F532B2B2F3A2F37
:102C70004F2F6D2F7C2FCDB7DEB7E8E00C94D22A12
:102C8000B0E0A0E0E6E4F6E10C94B22A49015A0172
:102C90006B017C010E94FF158401A4016A2D7B2D2C
:102CA00088E090E00E94CE2B94014A2D5B2DB60166
:102CB000C70100E20E94FE2A622F84E290E00E9497
:102CC000BC2BCDB7DEB7ECE00C94CE2AEDE5F3E0FB
:102CD00083E0808311828FEF8283838314827581E6
:102CE00023E030E04FEF5FEF60E0868197810E9444
:102CF0004016089580915D0380FF02C08695089577
:102D000080E0089590916103933018F49F5F909351
:102D10006103882391F020915D0330915E0340911F
:102D20005F03509160036091610370916203809131
:102D30006303909164030E944016089581E00E940D
:102D40008216089590916103992319F09150909300
:102D50006103882391F020915D0330915E034091DF
:102D60005F035091600360916103709162038091F1
:102D70006303909164030E944016089581E00E94CD
:102D8000A216089570E00E940B1F08956091120131
:102D900080915D0380FF0BC08091110123E0829F31
:102DA000C00111248B599C4F0E94C2160895809136
:102DB00013019091140123E0829FF0011124EB593B
:102DC000FC4F891748F71182108212828F5F339669
:102DD000F8CF90915D0390FF0EC090911301209168
:102DE000140133E0939FF0011124EB59FC4F92172B
:102DF00018F00E94C61608958183608342839F5F06
:102E00003396F5CFA3E0B0E0E8E0F7E10C94BC2AFC
:102E100090915D0390FF0AC09E012F5F3F4F0E947B
:102E2000F1154B8169818A810E94E9162396E2E0BF
:102E30000C94D82ACF93DF93EC01EC81F0E0E351BE
:102E4000FE4F4491EDE5F3E0628181810E9402171B
:102E50008C818F5F8C83DF91CF910895CF93DF9327
:102E6000EC01EDE5F3E0438162818C810E94021761
:102E70008C818F5F8C83DF91CF910895A3E0B0E0C8
:102E8000E4E4F7E10C94BA2A8C018091BB02811131
:102E90000AC09E012F5F3F4F4FEF6FEF0E94F11569
:102EA0008A818093BB02F8016481613069F080916E
:102EB000BB0240E0662361F040E0623011F44091D3
:102EC000BB0280E060E004C06091BB0240E080E0B3
:102ED0000E94E916F801848190E0019663E070E0B9
:102EE0000E943F2A84832396E4E00C94D62AA3E030
:102EF000B0E0EDE7F7E10C94B52A082FD62EF42EBA
:102F0000C22E90915D0390FF2EC0E92FE695AE2F63
:102F1000B0E0A055BE4F8C91809317039E7F9230F6
:102F200031F59E012F5F3F4F802F0E94F1154B819D
:102F300069818A810E94E91600935E03D0925F0343
:102F4000F0926003CC2079F020915D0360916103E1
:102F500070916203302F4D2D5F2D8091630390910E
:102F600064030E9440162396E9E00C94D12A823033
:102F700019F4F0906003E0CF863019F400915E03FD
:102F8000DBCF8930D9F38931B9F6E9516E2F617001
:102F9000B62EE695F0E0E351FD4F1491E12C6091DF
:102FA0001501E61618F00E94C616C6CFE19EC001B4
:102FB000112470E00E942B2A802FB11014C0860FBC
:102FC00020911301622F6E0D7727771F9B01220F2F
:102FD000331F260F371F2B593C4F4F2D6D2D0E944D
:102FE000F115E394DCCF861BEBCFEDE5F3E09181A7
:102FF000282F4381628188E0890F0E947717089506
:1030000081E00E94F5170895EDE5F3E09181282F06
:103010004381628188EF890F0E947717089581E0CC
:103020000E9404180895EDE5F3E0628128E0620F44
:1030300008F46FEF282F438181810E94771708954C
:1030400081E00E9413180895EDE5F3E0628128E025
:10305000621B08F460E0282F438181810E9477176A
:10306000089581E00E9424180895EDE5F3E043817E
:1030700028E0420F08F44FEF282F628181810E94DF
:103080007717089581E00E9435180895EDE5F3E083
:10309000438128E0421B08F440E0282F62818181AF
:1030A0000E947717089581E00E944618089520E055
:1030B0000E9477170895EF92FF921F93CF93DF93AB
:1030C000EC0110E0EE24EA94F12C60911501161742
:1030D00070F00E94C6169A818C8190FF27C08F5F86
:1030E0008C83DF91CF911F91FF90EF9008952091F5
:1030F0001301422F410F5527551FCA019A01220F74
:10310000331F280F391F2B593C4F70E0C7010E9415
:103110003F2A962F8C814091600360915F03199F35
:10312000800D11240E94F1151F5FCFCF8150D8CFA1
:10313000B0E0A0E0EEE9F8E10C94B52AFC01828150
:103140000FEF80FF01E010E080911501181798F053
:103150000E94C6168091BD02013009F04CC0811159
:1031600002C08091150181508093BD02CDB7DEB7BA
:10317000E9E00C94D12AC0911301C12ED12CCC0DC1
:10318000DD2DD11DCE01880F991FC80FD91FCB5936
:10319000DC4F198218821A8234E0E32EF12CB12C14
:1031A0008091BD028B0D813104F18F70082E000CCF
:1031B000990BC816D90691F4809160038E9DA001E9
:1031C0008F9D500D112455954795559547959E0116
:1031D00060915F0380915E030E94F115B00EF1E0F3
:1031E000EF1AF108E9F61F5FAFCF87FFDFCF9091AD
:1031F0001501890FDBCF90E001966091150170E019
:103200000E943F2AB1CF0F931F93CF93DF938091FA
:1032100013019091140123E0829FF0011124EB59D6
:10322000FC4F891740F1C0E0D3E060911501C6174B
:1032300040F10E94C61620910F018091BC02820FBE
:103240008093BC0290911001920F90931001191677
:1032500054F4082E000C990B409115014150550B68
:10326000841795071CF0219520930F01DF91CF91D2
:103270001F910F9108951182108212828F5F3396F1
:10328000D0CF0C2F10E070E0C8010E943F2A20919F
:103290001301820F482F50E02091BC02022E000C37
:1032A000330B02171307BCF020911001022E000C03
:1032B000330B201731077CF08D9F900111242B597F
:1032C0003C4F4091600360915F0380915E030E94D8
:1032D000F115CF5FAACFFA01EE0FFF1FE40FF51F24
:1032E000EB59FC4F118210821282F3CFB0E0A0E0C4
:1032F000ECE7F9E10C94B22AEC014C81042F10E0C8
:103300009801D8010E94832A9B01AC010E94992A4E
:103310004B015C01E0E2F0E0E01BF10BA5E5B0E061
:10332000AC019B010E94992A6B017C019F01DF0186
:103330000E947B2A9B01AC010E94A42A9B01AC0144
:10334000280D391D4A1D5B1DC701B6010E94532A75
:10335000F22E822F90E039E23F1520F143E0249FC6
:103360009001112435952795122F109500E085E5E1
:10337000E82EEF1880911501081718F10E94C61663
:103380009C8181E0992319F0903219F48FEF80939A
:103390000E0180910E01890F8C83CDB7DEB7ECE072
:1033A0000C94CE2A25E530E0B901681B790B9B010E
:1033B000220F331F260F371F37FFD4CF2F5F3F4F0A
:1033C000D1CF8E2D01FD8F2D20911301622F600F23
:1033D0007727771F9B01220F331F260F371F2B598B
:1033E0003C4F412F60915F030E94F1150F5FC2CFE8
:1033F0000F931F93CF93DF93EC0110E000E09091C7
:1034000015019017110609F06CF40E94C6168C8104
:1034100090E00196817099278C83DF91CF911F9165
:103420000F91089520911301A801420F511D9A0197
:10343000220F331F240F351F2B593C4F4C816091B5
:103440005F0380915E0396959017110651F04CF042
:10345000442349F0409160030E94F1150F5F1F4F14
:10346000CECF4423B9F340E0F7CFB0E0A0E0EBE3E8
:10347000FAE10C94AE2AFC016280448081E08483EE
:10348000EDEEF1E07490ECE6F2E0E491C0916003BF
:10349000C695C158D0E0CC0FDD1FCD2FDD27812C84
:1034A00075E0972EAA24AA94B12C55245A94E719B2
:1034B000EE2EF12C80911501881638F00E94C61668
:1034C000CDB7DEB7E0E10C94CA2AC82CD12C82E03B
:1034D000861568F09C9CF0019D9CF00D1124E2542F
:1034E000FD4F80915E03808380915F038183411053
:1034F00023C09C9CF0019D9CF00D1124E254FD4FD3
:103500001382128220911301C601820F911D9C012A
:10351000220F331F280F391F2B593C4F9C9CF00161
:103520009D9CF00D1124E254FD4F42816181808108
:103530000E94F1158394BECF9C9C80019D9C100D30
:10354000112402541D4FF80183818823F1F081502A
:103550008383859DC0011124648170E00E942B2A21
:10356000FB01FF27E351FE4F8491E82FE719E59D0A
:10357000C0011124B7010E942B2A80916003689F2B
:10358000B0011124F8017283BDCF0E94652BB501F3
:103590000E943F2A8C179D070CF0B4CFF2E0F6157D
:1035A00098F40E94652BB5010E943F2AF8018083A0
:1035B0000E94652B20915F032695622F70E00E9488
:1035C0003F2A280FF80121839C9CF0019D9CF00D5F
:1035D0001124E254FD4F128280916003893C58F01F
:1035E00088EC9C9CF0019D9CF00D1124E254FD4F51
:1035F0008483838387CF8431A0F784E1F2CFEDE524
:10360000F3E020812E7F20833181428153816481C8
:103610007581868197810E944016109218030E943E
:10362000C6160895EDE5F3E080818E7F80831092C9
:1036300018030E94C616089510921803809115036E
:1036400081110AC081E08093150380915D03817030
:10365000809314030E94121B089560915D03669588
:1036600070E04BE050E086E191E00E94752B892BE1
:1036700019F481E0809318030E94012390930F03B3
:1036800080930E03089590915D0390FF33C0917075
:10369000811131C0926090935D03662391F0209177
:1036A0005D0330915E0340915F0350916003609130
:1036B00061037091620380916303909164030E949F
:1036C000401660915D03669570E04BE050E086E146
:1036D00091E00E94752B892BA9F01092180381E0CC
:1036E000809311034091600360915F0380915E03BA
:1036F0000E94571808958B3210F09465CCCF880F34
:10370000982BC9CF0E942D1BEACF682F90915D03A3
:10371000969581E0890F8B3208F081E00E94431B6F
:10372000089581E00E94851B0895682F90915D03A4
:1037300096958FEF890F09F48AE20E94431B089542
:1037400081E00E94951B089561E00E94431B08954B
:10375000EDE5F3E080818160808386950E94A41B63
:10376000089580915D0380FF03C00E94FF1A0895B1
:103770000E94A81B089560E00E94431B0895809159
:10378000160381113EC00E94750D811104C00E9474
:10379000130E0E9466160E940E1620935D0330934E
:1037A0005E0340935F0350936003609361037093E3
:1037B000620380936303909364032E7FA1F40E94BD
:1037C00066160E940E1620935D0330935E034093AD
:1037D0005F0350936003609361037093620380936F
:1037E0006303909364030E94FF1510921803809165
:1037F0005D0380FF03C086950E94BB1B81E0809320
:1038000016030895EDE5F3E080818160808386955D
:103810000E94BB1B0895109215038091140381111F
:103820000E94021C0E942D1B08950F931F93CF939B
:10383000DF93809118038823B9F180911703E091F9
:103840005D03E695E81BE0931003823091F5F0E00C
:10385000E751FE4FE491CE2FD0E00AE117E18091CD
:103860001103882361F0109211030E9401239093A9
:103870000F0380930E0310921303109212030E9401
:103880000123E0910E03F0910F038E1B9F0B8F3FDE
:103890009F4750F4EC0FFD1FF0930F03E0930E03CE
:1038A0008EE093E0F8010995DF91CF911F910F9180
:1038B0000895863049F4F0E0EA51FE4FE491CE2FAE
:1038C000D0E00EE217E1CBCF893051F4E695F0E07D
:1038D000ED51FE4FE491CE2FD0E00BE518E1BFCFC4
:1038E0008F3051F4E695F0E0E052FE4FE491CE2F98
:1038F000D0E008E918E1B3CF853149F4F0E0E352B4
:10390000FE4FE491CE2FD0E003E019E1A8CFC8E24A
:10391000D0E006E719E1883109F4A1CF833239F408
:10392000EBEDF1E0C591D4910EE317E198CFC4EF30
:10393000D1E008EF19E1843209F491CFC0EDD7E06E
:103940000DEE15E1853209F08ACF8E2F63E00E94DB
:103950001F2AE92FF0E0E852FE4FE491CE2FD0E08D
:1039600005E31AE17CCFFA01811101C0FB01099541
:103970000895CF93DF93C82FD62F0E947A168C1705
:1039800048F00E947A168D1728F40E94911BDF914F
:10399000CF9108958C2F0E94A41BF9CF1F93CF9332
:1039A000DF93EC01FB011581111110C00E94740C12
:1039B0008272FE01E052F847E531F10508F05EC081
:1039C000E35EF34D0C94752A0E94B11B812FDF91A9
:1039D000CF911F91089540EA5BE161E97BE10E948C
:1039E000B31CF4CF41E95BE160EA7BE1F8CF4FE043
:1039F00058E160E078E1F3CF40E058E16FE078E132
:103A0000EECF41E358E160E278E1E9CF40E258E1EE
:103A100061E378E1E4CF43E558E162E478E1DFCFA8
:103A200042E458E163E578E1DACF4EEB56E16EE926
:103A300076E1D5CF4EE956E16EEB76E1D0CF81E06D
:103A40000E94A41BC3CF65E082E00E94B91CBECFD8
:103A500068E086E0FACF6EE089E0F7CF64E18FE0BE
:103A6000F4CF67E185E1F1CF88E1EACF62E289E155
:103A7000ECCF83E2E5CF6AE285E2E7CF11E0A6CFA3
:103A800086E090E00E94982B0895682F86E090E0F1
:103A90000E94BC2B0895E5E9F3E08081847089627F
:103AA00080830E94451D08950E94750D811104C0F8
:103AB0000E94130E0E944B1D0E94401D809395038F
:103AC000803320F0877088628093950390919503EE
:103AD000892F817090FF04C0892F869586958695E1
:103AE0000E94581E089580919503982F969596955B
:103AF0009695953040F49F5F990F990F990F8770B5
:103B0000892B809395038091950381608093950321
:103B10000E94451D809195038695869586950E9405
:103B2000581E089580919503982F987F79F08850BA
:103B300080939503887F91E009F490E0809195034C
:103B400090FB80F9809395030E94451D8091950319
:103B50008695869586950E94581E089580919503B6
:103B600080FD13C0816080939503813019F489E052
:103B700080939503809195030E94451D8091950344
:103B80008695869586950E94581E08958091950386
:103B900080FF08C08E7F809395030E94451D80E0C2
:103BA0000E94581E08958091950380FF03C00E94D3
:103BB000C61D08950E94AE1D089590919503892F0A
:103BC0008695869586958F5F8F7197708630E0F425
:103BD000880F880F880F892B809395038091950318
:103BE000887F91E009F490E08091950390FB80F943
:103BF000809395030E94451D809195038695869537
:103C000086950E94581E089590939503E7CF8630BD
:103C100008F085E0909195039770282F220F220FCE
:103C2000220F922B90939503987F21E009F420E0D6
:103C30009091950320FB90F9909395030E94581E54
:103C400008950E94071E809195030E94451D0895C6
:103C50009C01FB018581882349F12230F8E73F0769
:103C6000F9F040F42115E8E73E0769F021303847C4
:103C700079F00895243098E7390779F058F0253025
:103C8000384789F0089585E00E94211E80E008955C
:103C900080E0FACF0E94921DF9CF0E94731DF6CFEB
:103CA0000E94D31DF3CF0E94DD1DF0CF81E0089567
:103CB0008F929F92AF92BF92EF92FF920F931F93BA
:103CC000CF93DF938630B0F5811135C0909180009D
:103CD0009F7D90938000A0918600B0918700282F4F
:103CE00030E00E94832A25E030E040E050E00E946E
:103CF000532A89019A0180918600909187006CE097
:103D000070E00E942B2A60177107C8F0C80169E0B3
:103D100070E00E942B2A70938B0060938A00DF91E1
:103D2000CF911F910F91FF90EF90BF90AF909F9018
:103D30008F90089585E0909180009062CACF809125
:103D4000860090918700E0908600F0908700E091D7
:103D50008600F0918700C6E0D0E0BE010E942B2AC9
:103D6000060F171F211D311D4801590185E0880CE0
:103D7000991CAA1CBB1C8A95D1F7C701BE010E94E1
:103D80002B2A9F0150E040E0260F371F411D511D97
:103D9000C501B4010E94532A49015A01E0918600ED
:103DA000F0918700CA01B9010E940F2A9B01AC0162
:103DB000DF010E94992A9B01AC01C501B4010E9458
:103DC0000F2A2FE096958795779567952A95D1F7D5
:103DD000009186001091870030E020E00617170759
:103DE0002807390708F097CF609186007091870007
:103DF00092CF0895269A2E9882E28093800089E1DE
:103E0000809381008FEF9FEF9093870080938600CF
:103E10000E94541D08956A9A4EB14B7F5EB1546062
:103E2000EFB7F8949B01220F331F260F371F280F7F
:103E3000391F2817390741F4EFBF8FE594E0019748
:103E4000F1F700C000000895DC016D91CD0178E02C
:103E50005EB9000000C067FF4EB9660F000000C0E9
:103E600000C000C04EB900C07A9591F7E2CFCF9361
:103E7000DF93EC01FB018581882309F4D2C09E0108
:103E800030572332310508F0B2C00E948A0D90935A
:103E9000480380934703FE01E150F047E232F10509
:103EA00020F4EE5CF34D0C94752A809147038160F9
:103EB0008093470393C080914803886080934803B0
:103EC0008DC0809147038260F3CF80914703846067
:103ED000EFCF809147038860EBCF809148038160EA
:103EE000EDCF809148038260E9CF809147038061E4
:103EF000DFCF809147038062DBCF809147038064EE
:103F0000D7CF0E94E107809147038068D1CF80918D
:103F100047038C60CDCF809148038360CFCF8091E1
:103F200047038E7FC5CF80914803877FC7CF80919D
:103F300047038D7FBDCF809147038B7FB9CF8091A1
:103F40004703877FB5CF809148038E7FB7CF80919D
:103F500048038D7FB3CF809147038F7EA9CF809197
:103F600047038F7DA5CF809147038F7BA1CF0E9410
:103F7000E107809147038F779BCF80914703837F31
:103F800097CF809148038C7F99CF8091470382FB24
:103F9000992790F921E0922790FB82F990FB83F911
:103FA00087CF80914803982F909591708E7F892BB1
:103FB00090FB81F983CF90914703892F8F7B96FFE8
:103FC000806476CF0E94E10790914703892F97FB89
:103FD00087F980586DCF81E00E94160E80914703CB
:103FE000909148030E948F0D0E94E10780E0DF91CD
:103FF000CF91089580E0F0CF90914703892F8F7E75
:1040000094FF806155CF90914703892F8E7F90FF59
:1040100081604ECF90914803892F877F93FF8860FE
:104020004DCF81E0E4CFCF93DF93EB0186319C4706
:1040300011F50E94740C9D81992399F08A7A91E080
:1040400009F490E090931903811109C089E20E945C
:104050004C0C0E94CD0C80E0DF91CF91089585E358
:10406000F6CF80911903811104C089E20E94540C9B
:10407000F0CF85E3FBCF81E0EFCF0F931F93CF937A
:10408000DF93C42FD22FFC0185818823C9F0409390
:104090001C030E94012390931B0380931A0380E268
:1040A0008C0F883040F4C77081E001C0880FCA953A
:1040B000EAF70E948D05DF91CF911F910F9108952E
:1040C00010911C03141332C080911A0390911B03AA
:1040D0000E941923883C910548F5C0E2CD0F1D17B9
:1040E000B9F080E2810F883040F4177081E001C0A0
:1040F000880F1A95EAF70E949405C83048F481E0C9
:104100009D2F977001C0880F9A95EAF70E948D0540
:10411000802F0E948405C83070F6D77081E001C0FE
:10412000880FDA95EAF70E949405C5CF80E28C0FDC
:10413000883008F6C77081E001C0880FCA95EAF799
:10414000F2CF0F93DB0188519C4787309105A0F592
:10415000FC01EC5AF34D0C94752A06E221EE41EE77
:104160006AE17CE7CD010E943D2080E00F91089537
:1041700007E225EE45EE6BE17CE7F4CF06E221EEA7
:1041800040EE68E17CE7EECF07E225EE44EE69E120
:104190007CE7E8CF06E221EE42EE6CE17CE7E2CF7D
:1041A00007E225EE46EE6DE17CE7DCCF08E221E098
:1041B00045EE6EE17CE7D6CF15968C91882319F0F9
:1041C00010921C03D3CF81E0D1CF90932203809330
:1041D00021030895E0912103F0912203309729F003
:1041E0000190F081E02D0995089580E008950E94E6
:1041F000EA200895E0912103F0912203309799F08D
:1042000020912901222359F02091470327FF07C05D
:10421000DC012C9111962C93119726E02C930280AF
:10422000F381E02D09950895E0912103F091220397
:10423000309739F022E0DC012C930480F581E02DE9
:1042400009950895A3E0B0E0E8E2F1E20C94BC2AFD
:1042500020911F033091200328173907A1F0909374
:10426000200380931F03E0912103F09122033097F4
:1042700051F023E029839B838A830680F781E02D18
:10428000CE01019609952396E2E00C94D82AA3E08A
:10429000B0E0EDE4F1E20C94BC2A20911D033091D2
:1042A0001E0328173907A1F090931E0380931D0366
:1042B000E0912103F0912203309751F024E029830B
:1042C0009B838A830680F781E02DCE0101960995B4
:1042D0002396E2E00C94D82AFC01329680912901C1
:1042E000882321F0809147039EE187FF96E080E0DC
:1042F000915008F4089521912223D1F38F5FF8CFD4
:10430000662301F1209129012223F1F02091470336
:1043100027FF1AC0462F4695469546954E3190F494
:10432000677021E030E002C0220F331F6A95E2F788
:10433000840F911DFC01828190E02823392381E0C4
:10434000232B69F480E00895FC01329608962191B0
:10435000261721F0E817F907D1F7F4CF81E0089587
:104360009C01FC0132969FEF80E04191461751F08D
:104370009F3F19F4411101C0982F8F5F8630A9F734
:104380009F3F09F40895290F311D97FD3A95F901D2
:1043900062830895FC01329608962191261303C08A
:1043A000DF0111971C92E817F907B9F70895E62F76
:1043B000E695E695E695EE3168F4E80FF92FF11DE4
:1043C000677021E030E001C0220F6A95EAF7828130
:1043D000822B82830895E62FE695E695E695EE31E9
:1043E00070F4E80FF92FF11D677021E030E001C093
:1043F000220F6A95EAF72095828128232283089567
:1044000020912901222339F02091470327FF03C07F
:104410000E94D72108950E94B0210895209129017A
:10442000222339F02091470327FF03C00E94EB218C
:1044300008950E94CA210895FC01329680912901B5
:10444000882351F08091470387FF06C08EE1DF018A
:104450001D928A95E9F7089586E0F9CFDC01FB010A
:1044600011969C9111978181981322C012968C917C
:104470001297882319F0928189131AC013968C9190
:104480001397882319F09381891312C015968C9184
:104490001597882319F0958189130AC014969C9169
:1044A000992321F081E02481291303C080E001C019
:1044B00081E08170089508950E945B220895811122
:1044C00006C081E0809323030E945C22089582E06D
:1044D000F9CF83E0809323030E945C2208950E9419
:1044E0005F22089581E0809323030E945C22089557
:1044F0000E9472220895089508950E947C220895D2
:10450000089508950E947B220895CF930E948022EF
:104510000E9437120E948122C0E08C2F0E946811F5
:10452000892B31F4CF5FC530C1F780E0CF9108957A
:1045300081E0FCCF85B7806885BF85B7806885BF7F
:1045400008951F921FB61F9211248F939F93AF93CC
:10455000BF9380912403811113C0809196039091A1
:104560009703A0919803B09199034196A11DB11DA5
:104570008093960390939703A0939803B093990325
:10458000BF91AF919F918F911F901FBE1F90189563
:1045900080919E03843031F10E94E4031092240341
:1045A00088E190E020E40FB6F894A895809360002D
:1045B0000FBE2093600083B7817F846083BF83B781
:1045C000816083BF7894889583B78E7F83BF0FB651
:1045D000F894A895809160008861809360001092A3
:1045E00060000FBE08950E94E1070E94EE03089547
:1045F00082E084BD93E095BD9AEF97BD80936E00F5
:1046000008952FB7F8948091960390919703A09105
:104610009803B09199032FBF08952FB7F894609134
:1046200096037091970380919803909199032FBFFF
:1046300008959C014FB7F894809196039091970349
:10464000A0919803B09199034FBF821B930B0895DB
:1046500078941F921FB61F9211248F939F93AF934C
:10466000BF938091960390919703A0919803B09186
:1046700099030196A11DB11D809396039093970312
:10468000A0939803B0939903BF91AF919F918F919D
:104690001F901FBE1F90189581E08093E00080E27C
:1046A0008093D8001092C9008FE19EE40197F1F742
:1046B00000C0000087E090EBDC018093A70390939B
:1046C000A803A093A903B093AA0388E19CE00FB6C6
:1046D000F894A895809360000FBE90936000FFCF80
:1046E00088E19CE00FB6F894A895809360000FBE17
:1046F00090936000FFCF8091450308959B01BA011C
:1047000090919E039430E9F48F708093E9009FEFBD
:104710008091E800915085FD06C085ED8A95F1F7FE
:1047200000009111F5CF8091E80085FF0AC050E0AC
:1047300040E0C9010E9488258091E8008E7780932F
:10474000E800089543E050E0BC0182E00E947E232F
:10475000089546E050E0BC0182E00E947E23089567
:10476000CF93DF93EC0180912901811111C048E0C2
:1047700050E0BE0181E00E947E2380E2FE01A5E2BE
:10478000B3E001900D928A95E1F7DF91CF91089502
:104790008091470387FF05C040E282E050E0BE0100
:1047A000EACF48E081E0FACF80919D03811109C0F2
:1047B0000E9418270E9475278091E20084608093F0
:1047C000E200089510929D0308950E9472220895B8
:1047D00060919A0381E0611101C080E00E9469222A
:1047E000089590919E0381E0943009F080E06091FB
:1047F0009A030E946F22089542E061EC81E00E94DA
:10480000942642E261EC82E00E94942690919E03FD
:1048100081E0943009F080E060919A030E945F2269
:1048200008958091A003833009F461C030F4813091
:10483000D1F1823009F49EC008958A3009F48AC00B
:104840008B3009F46FC0893009F050C080919F030C
:10485000813209F04BC08091A3039091A403029789
:1048600008F044C08091E800877F8093E800809141
:10487000E80082FF37C09091F3008091F200029728
:1048800031F48091F100813011F0863021F4809173
:10489000F100809345038091E8008B778093E800D6
:1048A0000E94C82623C080919F03813AF9F4809129
:1048B000E800877F8093E8008091A3039091A40390
:1048C000892B61F460E285E293E070E00E94D725D5
:1048D0008091E8008B778093E800089560E090E095
:1048E00080E0F3CF80919E038111C1CF0895809124
:1048F0009F03813AD9F78091A3039091A403892B58
:10490000A9F78091E800877F8093E8008091E80014
:1049100080FFFCCF809129018093F1008091E80015
:104920008E77BCCF80919F03813201F78091A303E2
:104930009091A403892BD1F68091E800877F809322
:10494000E8000E94C8268091A103809329010E945B
:10495000E107089580919F03813241F68091E8003C
:10496000877F8093E8000E94C8268091A2038093ED
:104970004603089580919F03813A09F0B7CF809153
:10498000E800877F8093E8008091E80080FFFCCFFB
:1049900080914603C1CF84B7877F84BF0FB6F89458
:1049A000A8958091600088618093600010926000FB
:1049B0000FBE80E890E00FB6F8948093610090936A
:1049C00061000FBE0E94782208950E9418270E945D
:1049D0007527E2EEF0E080818460808378940E9405
:1049E000F429089581E291E00E94E52008958091E4
:1049F0009E03853031F480919E03853019F00E942A
:104A0000F32208950E94C82280919C03882399F381
:104A10000E948522882379F30E9472250E94E10773
:104A2000EACF08959A014091A5035091A6030E94F0
:104A30001A250895492F55274330510519F168F477
:104A40004130510509F444C04230510509F445C0D4
:104A500090E080E050E040E025C04132510549F14E
:104A600042325105A9F784E490E047E155E0611531
:104A70007105C1F086EB90E041E654E061307105CC
:104A800089F0E6CF99278130910581F0009729F0D0
:104A90000297F1F6E2EFF3E002C0E0E1F4E0849186
:104AA00090E0AF01F901518340830895EEEFF3E008
:104AB000F6CF89E090E046E254E06115710591F38C
:104AC00089E090E04FE354E06130710559F3C0CFC5
:104AD00082E190E04FE454E0E5CF8BE390E044E1E5
:104AE00054E0E0CF80E189BD82E189BD09B400FED8
:104AF000FDCF8091D8008F7D8093D8008091E00019
:104B000082608093E0008091E00081FDFCCF0895F9
:104B1000AF92BF92CF92DF92FF920F931F93CF93EA
:104B2000DF936C01EB018A010E94E726F82E8111C8
:104B300023C00115110539F0F80180819181C81B4E
:104B4000D90BC80ED91EB12CA12C2097A9F08091A9
:104B5000E80085FD22C08091E8008E778093E80010
:104B600001151105A1F0F80180819181A80EB91EEF
:104B7000B182A08285E0F82E8F2DDF91CF911F9119
:104B80000F91FF90DF90CF90BF90AF9008950E945B
:104B9000E7268823D1F2F82EEFCFF60181916F013D
:104BA0008093F1002197FFEFAF1ABF0ACECFFC012F
:104BB0008091A5039091A60386179707A0F0611531
:104BC000710529F49091E8009E779093E80090E0B9
:104BD0006115710551F4911108C08091E80082FFC0
:104BE00034C080E00895BC01F2CF80919E038823F9
:104BF000C1F18530C1F18091E80083FD30C0809122
:104C0000E80082FDEACF8091E80080FFE1CF80914B
:104C1000F3002091F200382F6115710519F028304A
:104C2000310558F091E02830310509F090E02091ED
:104C3000E8002E772093E800CBCF81918093F1009C
:104C4000615071092F5F3F4FE7CF80919E0388230A
:104C500041F0853041F08091E80083FFBECF81E0D4
:104C6000089582E0089583E00895FC018091A503F2
:104C70009091A60386179707A0F06115710529F496
:104C80008091E8008E778093E80090E061157105CF
:104C900051F4911108C08091E80082FF35C080E096
:104CA0000895BC01F2CF80919E038823C9F185301D
:104CB000C9F18091E80083FD31C08091E80082FD58
:104CC000EACF8091E80080FFE1CF8091F30020914E
:104CD000F200382F6115710519F02830310558F0B0
:104CE00091E02830310509F090E08091E8008E775E
:104CF0008093E800CBCF84918093F100319661508E
:104D000071092F5F3F4FE6CF80919E03882341F0CA
:104D1000853041F08091E80083FFBDCF81E00895A8
:104D200082E0089583E00895982F973028F08F70DF
:104D30008093E90081E008959093E900242F762F75
:104D400050E0981731F07091EC002091ED005091F7
:104D5000F00021FD02C09F5FE8CF3091EB003E7F65
:104D60003093EB003091ED003D7F3093ED003091BA
:104D7000EB0031603093EB007093EC002093ED007A
:104D80005093F0002091EE0027FDE5CF80E00895DC
:104D900080919F0387FF13C08091E80082FF06C0C7
:104DA0008091E8008B778093E80004C080919E0397
:104DB0008111F2CF089580919E038823D9F38091C9
:104DC000E80080FFF8CF8091E8008E77ECCF20914B
:104DD000E4003091E50095E6A9012091EC00822FD6
:104DE000817020FF06C08091E80080FF06C080E04F
:104DF00008952091E80022FD1AC080919E03882327
:104E000089F0853089F08091EB0085FD0FC02091FD
:104E1000E4003091E50042175307F9F29150E1F6B2
:104E200084E0089582E0089583E0089581E0089584
:104E30000E9487270E948F27E0EEF0E0808181604A
:104E40008083E8EDF0E080818F77808319BCA7ED47
:104E5000B0E08C918E7F8C9380818F7E80831092C6
:104E60009D0308950F931F93CF93DF930E9487278D
:104E70000E948F27C8EDD0E088818F778883888152
:104E80008068888388818F7D888319BC10929E03F7
:104E900010929A0310929C0310929B0300EE10E074
:104EA000F80180818B7F808388818160888342E0E4
:104EB00060E080E00E949426E1EEF0E080818E7F49
:104EC0008083E2EEF0E08081816080838081886071
:104ED0008083F80180818E7F8083888180618883D0
:104EE000DF91CF911F910F910895E8EDF0E080815F
:104EF0008F7E8083E7EDF0E080818160808384E0B5
:104F000082BF81E080939D030E9432270895E8EDDF
:104F1000F0E080818E7F80831092E20008951092ED
:104F2000DA001092E10008951F920F920FB60F92CF
:104F300011242F933F934F935F936F937F938F939E
:104F40009F93AF93BF93EF93FF938091E10082FF14
:104F50000BC08091E20082FF07C08091E1008B7F4F
:104F60008093E1000E94F3298091DA0080FF19C04C
:104F70008091D80080FF15C08091DA008E7F8093E9
:104F8000DA008091D90080FF96C080E189BD82E17E
:104F900089BD09B400FEFDCF81E080939E030E948D
:104FA000D4238091E10080FF19C08091E20080FF4E
:104FB00015C08091E2008E7F8093E2008091E20034
:104FC00080618093E2008091D80080628093D80055
:104FD00019BC85E080939E030E94E8238091E10044
:104FE00084FF2BC08091E20084FF27C080E189BD4F
:104FF00082E189BD89B5982F917080FFFBCF8091A8
:10500000D8008F7D8093D8008091E1008F7E8093BF
:10501000E1008091E2008F7E8093E2008091E200C7
:1050200081608093E20080919A03882309F449C04B
:1050300084E080939E030E94F1238091E10083FF2E
:1050400029C08091E20083FF25C08091E100877F25
:105050008093E10082E080939E0310929A038091F6
:10506000E1008E7F8093E1008091E2008E7F80934B
:10507000E2008091E20080618093E20042E060E023
:1050800080E00E9494268091F00088608093F00078
:105090000E94E523FF91EF91BF91AF919F918F9176
:1050A0007F916F915F914F913F912F910F900FBE24
:1050B0000F901F90189519BC10929E030E94E22336
:1050C00070CF8091E30087FD93E090939E03B3CF70
:1050D0001F920F920FB60F9211242F933F934F936D
:1050E0005F936F937F938F939F93AF93BF93CF9370
:1050F000DF93EF93FF93D091E900DF708091EC0094
:10510000C82FC17080FDC0E81092E9008091F000C6
:10511000877F8093F00078940E94AC281092E90079
:105120008091F00088608093F000CD2BCF70C09309
:10513000E900FF91EF91DF91CF91BF91AF919F91E6
:105140008F917F916F915F914F913F912F910F9030
:105150000FBE0F901F901895AAE2B0E0E2EBF8E2C4
:105160000C94BB2A8FE993E02091F100FC0121937C
:10517000CF01F3E0873A9F07B9F70E94112480918D
:10518000E80083FF1EC180919F039091A0039A3095
:1051900008F017C1E92FF0E0E55AF34D0C94752A99
:1051A000803899F0823809F00CC18091A3038F7088
:1051B000873008F006C18093E9008091EB0085FB01
:1051C000882780F91092E90006C080919B03909196
:1051D0009C03911182609091E800977F9093E80082
:1051E0008093F1001092F1008091E8008E77E5C085
:1051F000882309F4D3C0823009F0E3C08091A10371
:105200008111D6C08091A3038F702FEF280F263015
:1052100008F0D7C08093E9002091EB0020FFC8C0C0
:10522000933031F48091EB0080628093EB00C0C03A
:105230009091EB0090619093EB0021E030E001C091
:10524000220F8A95EAF72093EA001092EA008091F3
:10525000EB008860EACF8111B4C01091A1031F77E1
:105260008091E3008078812B8093E3008091E800B7
:10527000877F8093E8000E94C8268091E80080FF25
:10528000FCCF8091E30080688093E30082E01111FD
:1052900083E080939E0395C08058823008F091C0CF
:1052A0008091A1039091A2038C3D23E09207A1F588
:1052B00083E08A838AE289834FB7F894DE011396EC
:1052C00020E03EE051E2E32FF0E050935700E491FC
:1052D00020FF03C0E295EF703F5FEF708E2F90E0EC
:1052E000EA30C0F0C7968D939D932F5F243159F714
:1052F0004FBF8091E800877F8093E8006AE270E00A
:10530000CE0101960E94D7258091E8008B7780938B
:10531000E80057C0C096E7CF6091A3037091A40343
:10532000AE014F5F5F4F0E941225BC01892B09F42B
:1053300048C09091E800977F9093E80089819A8116
:105340000E943526E1CF8038E1F58091E800877F23
:105350008093E80080919A038093F10045CF8111FA
:1053600030C09091A103923060F58091E800877F72
:105370008093E80090939A030E94C82680919A0334
:10538000882311F084E005C08091E30087FDFACF07
:1053900081E080939E030E94FC2313C08091A103AF
:1053A000813079F481E0933009F080E080939C03B0
:1053B0001092E9008091E800877F8093E8000E94C6
:1053C000C8268091E80083FF0AC08091E800877FAB
:1053D0008093E8008091EB0080628093EB00AA96B6
:1053E000E3E00C94D72A0895CF9380919E038823FD
:1053F000A1F0C091E900CF709091EC00892F8170ED
:1054000090FD80E8C82B1092E9008091E80083FDB0
:105410000E94AC28CF70C093E900CF910895DB01C2
:105420008F939F930E94992ABF91AF91A29F800D65
:10543000911DA39F900DB29F900D11240895991B6B
:1054400079E004C0991F961708F0961B881F7A957B
:10545000C9F780950895AA1BBB1B51E107C0AA1F7D
:10546000BB1FA617B70710F0A61BB70B881F991F05
:105470005A95A9F780959095BC01CD01089597FBA9
:10548000072E16F4009407D077FD09D00E942B2A2E
:1054900007FC05D03EF4909581959F4F0895709537
:1054A00061957F4F0895A1E21A2EAA1BBB1BFD0137
:1054B0000DC0AA1FBB1FEE1FFF1FA217B307E407F3
:1054C000F50720F0A21BB30BE40BF50B661F771F4B
:1054D000881F991F1A9469F760957095809590952B
:1054E0009B01AC01BD01CF010895EE0FFF1F059098
:1054F000F491E02D09940E94832A332312F48A1B2D
:105500009B0B0C94942AA29FB001B39FC001A39F50
:10551000700D811D1124911DB29F700D811D1124EC
:10552000911D08950E94832AB7FF0895821B930B53
:1055300008950E94832AA59F900DB49F900DA49F6B
:10554000800D911D11240895B7FF0C94992A0E9493
:10555000992A821B930B08952F923F924F925F924C
:105560006F927F928F929F92AF92BF92CF92DF9273
:10557000EF92FF920F931F93CF93DF93CDB7DEB7D8
:10558000CA1BDB0B0FB6F894DEBF0FBECDBF09946C
:105590002A88398848885F846E847D848C849B84C3
:1055A000AA84B984C884DF80EE80FD800C811B81D1
:1055B000AA81B981CE0FD11D0FB6F894DEBF0FBE00
:1055C000CDBFED010895002E083090F0982F872F61
:1055D000762F652F542F432F322F22270850F4CFD8
:1055E000220F331F441F551F661F771F881F991FE7
:1055F0000A95B2F7002D089597FD1094002E0830FB
:1056000098F00850232F342F452F562F672F782FCF
:10561000892F912DF4CF1594979587957795679558
:1056200057954795379527950A95AAF71124002D88
:1056300008958F929F92AF92BF92CF92DF92EF9296
:10564000FF92CF93DF93EC01688179818A819B81FE
:10565000611571058105910521F464E279ED8BE511
:1056600097E02DE133EF41E050E00E94F02B49013B
:105670005A019B01AC01A7EAB1E40E94992A6B018F
:105680007C01ACEEB4EFA50194010E94A72ADC01D5
:10569000CB018C0D9D1DAE1DBF1DB7FF03C0019733
:1056A000A109B04888839983AA83BB839F77DF9140
:1056B000CF91FF90EF90DF90CF90BF90AF909F90F1
:1056C0008F9008950E94192B089580E091E00E9428
:1056D000192B0895B0E0A0E08093000190930101A0
:1056E000A0930201B09303010895FC014150504082
:1056F00030F001900616D1F73197CF010895882731
:1057000099270895FB01DC0104C08D910190801957
:1057100021F441505040C8F7881B990B0895FB01B4
:10572000DC0102C001900D9241505040D8F708951D
:10573000F999FECF92BD81BDF89A992780B5089559
:10574000A6E1B0E044E050E00C94E22BA8E1B0E028
:1057500042E050E00C94E22BDC01A40FB51F415055
:10576000504048F0CB01840F951F2E910E94BD2B15
:1057700041505040D0F70895262FF999FECF92BDA1
:1057800081BDF89A019700B4021639F01FBA20BD06
:105790000FB6F894FA9AF99A0FBE08950396272F38
:1057A0000E94BD2B0E94BC2B252F0E94BD2B242FB5
:1057B0000C94BD2B0196272F0E94BD2B0C94BC2B63
:1057C000DC01CB01FC01F999FECF06C0F2BDE1BDC1
:1057D000F89A319600B40D9241505040B8F70895B0
:1057E000052E97FB1EF400940E94072C57FD07D04E
:1057F0000E94532A07FC03D04EF40C94072C5095BA
:105800004095309521953F4F4F4F5F4F08959095AC
:105810008095709561957F4F8F4F9F4F0895F894B5
:10582000FFCFDA05DA052A062A068F06AB06090637
:105830000906B006210730073007E41CEB1CF21CF8
:10584000F71CFC1C011D061D0B1D101D151D1A1D2E
:105850001F1D231D281D2B1D2E1D311D341D361D02
:10586000391D3B1D8F1F0320971F611F651F9B1F45
:10587000691F9F1FAB1F751FFC1F791FAF1F7D1F67
:10588000B31FDB1F811FB71FE21F871FBD1FC51F6F
:105890006D1FA31F711FA71F8B1FC11FD11FEB1FE0
:1058A000FA1F5B1F931F0A20BE20C420AD20B82022
:1058B000CA20D020D620D028F828E129F828E129CC
:0A58C0002B294C29E129A329AF2967
:1058CA00010000007402280850011E0A1401010197
:1058DA0002001000101001191A1B1C1D1E1F202186
:1058EA00227B23B023A923A22301E200E900EA00D4
:1058FA00B500B600B700CD008301CC008A01920141
:10590A0094012102230224022502260227022A02E6
:10591A00B300B4006F0070009F01CB019F02A00288
:10592A00818283E200E900EA00B500B600B700CD43
:10593A00008301CC008A01920194012102230224EE
:10594A00022502260227022A02B300B4006F007061
:10595A00009F01CB019F02A002818283F0F1C667FA
:10596A0066379431303534979633F4909192939503
:10597A000001020202020606060909090909090FBD
:10598A000F0F0F0F0F1515151819191919191919BC
:0C599A0019191923242525252525250091
:00000001FF
